{
  "_format": "hh-sol-artifact-1",
  "contractName": "music",
  "sourceName": "contracts/music.sol",
  "abi": [
    {
      "inputs": [],
      "stateMutability": "nonpayable",
      "type": "constructor"
    },
    {
      "inputs": [],
      "name": "getBalance",
      "outputs": [
        {
          "internalType": "uint256",
          "name": "",
          "type": "uint256"
        }
      ],
      "stateMutability": "view",
      "type": "function"
    },
    {
      "inputs": [
        {
          "internalType": "address",
          "name": "ContractAddress",
          "type": "address"
        }
      ],
      "name": "getContractBalance",
      "outputs": [
        {
          "internalType": "uint256",
          "name": "",
          "type": "uint256"
        }
      ],
      "stateMutability": "view",
      "type": "function"
    },
    {
      "inputs": [
        {
          "internalType": "string",
          "name": "name",
          "type": "string"
        },
        {
          "internalType": "string",
          "name": "category",
          "type": "string"
        },
        {
          "internalType": "string",
          "name": "image",
          "type": "string"
        },
        {
          "internalType": "string",
          "name": "description",
          "type": "string"
        },
        {
          "internalType": "string",
          "name": "price",
          "type": "string"
        }
      ],
      "name": "placeOrder",
      "outputs": [],
      "stateMutability": "payable",
      "type": "function"
    },
    {
      "inputs": [],
      "name": "showOrders",
      "outputs": [
        {
          "components": [
            {
              "internalType": "string",
              "name": "name",
              "type": "string"
            },
            {
              "internalType": "string",
              "name": "category",
              "type": "string"
            },
            {
              "internalType": "string",
              "name": "image",
              "type": "string"
            },
            {
              "internalType": "string",
              "name": "description",
              "type": "string"
            },
            {
              "internalType": "string",
              "name": "price",
              "type": "string"
            },
            {
              "internalType": "address",
              "name": "from",
              "type": "address"
            },
            {
              "internalType": "uint256",
              "name": "timestamp",
              "type": "uint256"
            }
          ],
          "internalType": "struct music.orders[]",
          "name": "",
          "type": "tuple[]"
        }
      ],
      "stateMutability": "view",
      "type": "function"
    },
    {
      "inputs": [
        {
          "internalType": "uint256",
          "name": "money",
          "type": "uint256"
        }
      ],
      "name": "withdrawMoney",
      "outputs": [],
      "stateMutability": "nonpayable",
      "type": "function"
    }
  ],
  "bytecode": "0x608060405234801561001057600080fd5b5033600160006101000a81548173ffffffffffffffffffffffffffffffffffffffff021916908373ffffffffffffffffffffffffffffffffffffffff1602179055506111af806100616000396000f3fe60806040526004361061004a5760003560e01c806312065fe01461004f57806323cc15ba1461007a57806343ab265f1461009657806354876921146100d3578063cfdedf80146100fc575b600080fd5b34801561005b57600080fd5b50610064610127565b60405161007191906107d3565b60405180910390f35b610094600480360381019061008f9190610948565b610168565b005b3480156100a257600080fd5b506100bd60048036038101906100b89190610aad565b610350565b6040516100ca91906107d3565b60405180910390f35b3480156100df57600080fd5b506100fa60048036038101906100f59190610b06565b610371565b005b34801561010857600080fd5b50610111610421565b60405161011e9190610d4a565b60405180910390f35b6000600160009054906101000a900473ffffffffffffffffffffffffffffffffffffffff1673ffffffffffffffffffffffffffffffffffffffff1631905090565b600034116101ab576040517f08c379a00000000000000000000000000000000000000000000000000000000081526004016101a290610dc9565b60405180910390fd5b600160009054906101000a900473ffffffffffffffffffffffffffffffffffffffff1673ffffffffffffffffffffffffffffffffffffffff166108fc349081150290604051600060405180830381858888f19350505050158015610213573d6000803e3d6000fd5b5060006040518060e001604052808781526020018681526020018581526020018481526020018381526020013373ffffffffffffffffffffffffffffffffffffffff168152602001428152509080600181540180825580915050600190039060005260206000209060070201600090919091909150600082015181600001908161029d9190610ff5565b5060208201518160010190816102b39190610ff5565b5060408201518160020190816102c99190610ff5565b5060608201518160030190816102df9190610ff5565b5060808201518160040190816102f59190610ff5565b5060a08201518160050160006101000a81548173ffffffffffffffffffffffffffffffffffffffff021916908373ffffffffffffffffffffffffffffffffffffffff16021790555060c0820151816006015550505050505050565b60008173ffffffffffffffffffffffffffffffffffffffff16319050919050565b60003373ffffffffffffffffffffffffffffffffffffffff1682604051610397906110f8565b60006040518083038185875af1925050503d80600081146103d4576040519150601f19603f3d011682016040523d82523d6000602084013e6103d9565b606091505b505090508061041d576040517f08c379a000000000000000000000000000000000000000000000000000000000815260040161041490611159565b60405180910390fd5b5050565b60606000805480602002602001604051908101604052809291908181526020016000905b828210156107b157838290600052602060002090600702016040518060e001604052908160008201805461047890610e18565b80601f01602080910402602001604051908101604052809291908181526020018280546104a490610e18565b80156104f15780601f106104c6576101008083540402835291602001916104f1565b820191906000526020600020905b8154815290600101906020018083116104d457829003601f168201915b5050505050815260200160018201805461050a90610e18565b80601f016020809104026020016040519081016040528092919081815260200182805461053690610e18565b80156105835780601f1061055857610100808354040283529160200191610583565b820191906000526020600020905b81548152906001019060200180831161056657829003601f168201915b5050505050815260200160028201805461059c90610e18565b80601f01602080910402602001604051908101604052809291908181526020018280546105c890610e18565b80156106155780601f106105ea57610100808354040283529160200191610615565b820191906000526020600020905b8154815290600101906020018083116105f857829003601f168201915b5050505050815260200160038201805461062e90610e18565b80601f016020809104026020016040519081016040528092919081815260200182805461065a90610e18565b80156106a75780601f1061067c576101008083540402835291602001916106a7565b820191906000526020600020905b81548152906001019060200180831161068a57829003601f168201915b505050505081526020016004820180546106c090610e18565b80601f01602080910402602001604051908101604052809291908181526020018280546106ec90610e18565b80156107395780601f1061070e57610100808354040283529160200191610739565b820191906000526020600020905b81548152906001019060200180831161071c57829003601f168201915b505050505081526020016005820160009054906101000a900473ffffffffffffffffffffffffffffffffffffffff1673ffffffffffffffffffffffffffffffffffffffff1673ffffffffffffffffffffffffffffffffffffffff16815260200160068201548152505081526020019060010190610445565b50505050905090565b6000819050919050565b6107cd816107ba565b82525050565b60006020820190506107e860008301846107c4565b92915050565b6000604051905090565b600080fd5b600080fd5b600080fd5b600080fd5b6000601f19601f8301169050919050565b7f4e487b7100000000000000000000000000000000000000000000000000000000600052604160045260246000fd5b6108558261080c565b810181811067ffffffffffffffff821117156108745761087361081d565b5b80604052505050565b60006108876107ee565b9050610893828261084c565b919050565b600067ffffffffffffffff8211156108b3576108b261081d565b5b6108bc8261080c565b9050602081019050919050565b82818337600083830152505050565b60006108eb6108e684610898565b61087d565b90508281526020810184848401111561090757610906610807565b5b6109128482856108c9565b509392505050565b600082601f83011261092f5761092e610802565b5b813561093f8482602086016108d8565b91505092915050565b600080600080600060a08688031215610964576109636107f8565b5b600086013567ffffffffffffffff811115610982576109816107fd565b5b61098e8882890161091a565b955050602086013567ffffffffffffffff8111156109af576109ae6107fd565b5b6109bb8882890161091a565b945050604086013567ffffffffffffffff8111156109dc576109db6107fd565b5b6109e88882890161091a565b935050606086013567ffffffffffffffff811115610a0957610a086107fd565b5b610a158882890161091a565b925050608086013567ffffffffffffffff811115610a3657610a356107fd565b5b610a428882890161091a565b9150509295509295909350565b600073ffffffffffffffffffffffffffffffffffffffff82169050919050565b6000610a7a82610a4f565b9050919050565b610a8a81610a6f565b8114610a9557600080fd5b50565b600081359050610aa781610a81565b92915050565b600060208284031215610ac357610ac26107f8565b5b6000610ad184828501610a98565b91505092915050565b610ae3816107ba565b8114610aee57600080fd5b50565b600081359050610b0081610ada565b92915050565b600060208284031215610b1c57610b1b6107f8565b5b6000610b2a84828501610af1565b91505092915050565b600081519050919050565b600082825260208201905092915050565b6000819050602082019050919050565b600081519050919050565b600082825260208201905092915050565b60005b83811015610b99578082015181840152602081019050610b7e565b60008484015250505050565b6000610bb082610b5f565b610bba8185610b6a565b9350610bca818560208601610b7b565b610bd38161080c565b840191505092915050565b610be781610a6f565b82525050565b610bf6816107ba565b82525050565b600060e0830160008301518482036000860152610c198282610ba5565b91505060208301518482036020860152610c338282610ba5565b91505060408301518482036040860152610c4d8282610ba5565b91505060608301518482036060860152610c678282610ba5565b91505060808301518482036080860152610c818282610ba5565b91505060a0830151610c9660a0860182610bde565b5060c0830151610ca960c0860182610bed565b508091505092915050565b6000610cc08383610bfc565b905092915050565b6000602082019050919050565b6000610ce082610b33565b610cea8185610b3e565b935083602082028501610cfc85610b4f565b8060005b85811015610d385784840389528151610d198582610cb4565b9450610d2483610cc8565b925060208a01995050600181019050610d00565b50829750879550505050505092915050565b60006020820190508181036000830152610d648184610cd5565b905092915050565b600082825260208201905092915050565b7f416d6f756e742073686f756c64206e6f74206265203020657468657200000000600082015250565b6000610db3601c83610d6c565b9150610dbe82610d7d565b602082019050919050565b60006020820190508181036000830152610de281610da6565b9050919050565b7f4e487b7100000000000000000000000000000000000000000000000000000000600052602260045260246000fd5b60006002820490506001821680610e3057607f821691505b602082108103610e4357610e42610de9565b5b50919050565b60008190508160005260206000209050919050565b60006020601f8301049050919050565b600082821b905092915050565b600060088302610eab7fffffffffffffffffffffffffffffffffffffffffffffffffffffffffffffffff82610e6e565b610eb58683610e6e565b95508019841693508086168417925050509392505050565b6000819050919050565b6000610ef2610eed610ee8846107ba565b610ecd565b6107ba565b9050919050565b6000819050919050565b610f0c83610ed7565b610f20610f1882610ef9565b848454610e7b565b825550505050565b600090565b610f35610f28565b610f40818484610f03565b505050565b5b81811015610f6457610f59600082610f2d565b600181019050610f46565b5050565b601f821115610fa957610f7a81610e49565b610f8384610e5e565b81016020851015610f92578190505b610fa6610f9e85610e5e565b830182610f45565b50505b505050565b600082821c905092915050565b6000610fcc60001984600802610fae565b1980831691505092915050565b6000610fe58383610fbb565b9150826002028217905092915050565b610ffe82610b5f565b67ffffffffffffffff8111156110175761101661081d565b5b6110218254610e18565b61102c828285610f68565b600060209050601f83116001811461105f576000841561104d578287015190505b6110578582610fd9565b8655506110bf565b601f19841661106d86610e49565b60005b8281101561109557848901518255600182019150602085019450602081019050611070565b868310156110b257848901516110ae601f891682610fbb565b8355505b6001600288020188555050505b505050505050565b600081905092915050565b50565b60006110e26000836110c7565b91506110ed826110d2565b600082019050919050565b6000611103826110d5565b9150819050919050565b7f4d792063616c6c206661696c6564000000000000000000000000000000000000600082015250565b6000611143600e83610d6c565b915061114e8261110d565b602082019050919050565b6000602082019050818103600083015261117281611136565b905091905056fea2646970667358221220e066a6faca39e1b4b6b756b517829e2a0133ab4da3b714701e761af4d097cedc64736f6c63430008120033",
  "linkReferences": {},
  "deployedLinkReferences": {}
}